{"abi":[{"type":"constructor","inputs":[],"stateMutability":"payable"},{"type":"function","name":"createWallet","inputs":[{"name":"name","type":"bytes32","internalType":"bytes32"}],"outputs":[],"stateMutability":"payable"},{"type":"function","name":"isSolved","inputs":[],"outputs":[{"name":"","type":"bool","internalType":"bool"}],"stateMutability":"view"},{"type":"function","name":"transfer","inputs":[{"name":"fromWalletId","type":"uint256","internalType":"uint256"},{"name":"toWalletId","type":"uint256","internalType":"uint256"},{"name":"amount","type":"uint256","internalType":"uint256"}],"outputs":[],"stateMutability":"nonpayable"},{"type":"function","name":"wallets","inputs":[{"name":"","type":"uint256","internalType":"uint256"}],"outputs":[{"name":"name","type":"bytes32","internalType":"bytes32"},{"name":"balance","type":"uint256","internalType":"uint256"},{"name":"owner","type":"address","internalType":"address"}],"stateMutability":"view"},{"type":"function","name":"withdraw","inputs":[{"name":"walletId","type":"uint256","internalType":"uint256"},{"name":"amount","type":"uint256","internalType":"uint256"}],"outputs":[],"stateMutability":"nonpayable"}],"bytecode":{"object":"0x6080604052346c0c9f2c9cd04674edea4000000014601c57600080fd5b6104e48061002b6000396000f3fe60806040526004361061004a5760003560e01c80631d6476051461004f578063441a3e701461011057806364d98f6e146101305780637ad71f721461015157806390dd262714610195575b600080fd5b61010e61005d3660046103ef565b346001908155600280546001600160a01b031990811633178255838301600081815580527f290decd9548b62a8d60345a988386fc84ba6bc95484008f6362f93160ef3e56360039095029485015591547f290decd9548b62a8d60345a988386fc84ba6bc95484008f6362f93160ef3e564840155547f290decd9548b62a8d60345a988386fc84ba6bc95484008f6362f93160ef3e56590920180549091166001600160a01b03909216919091179055565b005b34801561011c57600080fd5b5061010e61012b366004610408565b6101b5565b34801561013c57600080fd5b50604051471581526020015b60405180910390f35b34801561015d57600080fd5b5061017161016c3660046103ef565b6102c7565b6040805193845260208401929092526001600160a01b031690820152606001610148565b3480156101a157600080fd5b5061010e6101b036600461042a565b610303565b336001600160a01b0316600083815481106101d2576101d2610456565b60009182526020909120600260039092020101546001600160a01b03161461022d5760405162461bcd60e51b81526020600482015260096024820152683737ba1037bbb732b960b91b60448201526064015b60405180910390fd5b806000838154811061024157610241610456565b906000526020600020906003020160010160008282546102619190610482565b9091555050600080548390811061027a5761027a610456565b600091825260208220600260039092020101546040516001600160a01b039091169183156108fc02918491818181858888f193505050501580156102c2573d6000803e3d6000fd5b505050565b600081815481106102d757600080fd5b60009182526020909120600390910201805460018201546002909201549092506001600160a01b031683565b336001600160a01b03166000848154811061032057610320610456565b60009182526020909120600260039092020101546001600160a01b0316146103765760405162461bcd60e51b81526020600482015260096024820152683737ba1037bbb732b960b91b6044820152606401610224565b806000848154811061038a5761038a610456565b906000526020600020906003020160010160008282546103aa9190610482565b9250508190555080600083815481106103c5576103c5610456565b906000526020600020906003020160010160008282546103e5919061049b565b9091555050505050565b60006020828403121561040157600080fd5b5035919050565b6000806040838503121561041b57600080fd5b50508035926020909101359150565b60008060006060848603121561043f57600080fd5b505081359360208301359350604090920135919050565b634e487b7160e01b600052603260045260246000fd5b634e487b7160e01b600052601160045260246000fd5b818103818111156104955761049561046c565b92915050565b808201808211156104955761049561046c56fea26469706673582212204a4d2fd6d9ba3cb756b1ccecea1125fd9ade2e8559495f9e2b8fc382247fb6bc64736f6c634300081c0033","linkReferences":{}},"methodIdentifiers":{"createWallet(bytes32)":"1d647605","isSolved()":"64d98f6e","transfer(uint256,uint256,uint256)":"90dd2627","wallets(uint256)":"7ad71f72","withdraw(uint256,uint256)":"441a3e70"},"id":0}