{"abi":[{"type":"function","name":"play","inputs":[{"name":"","type":"address","internalType":"address"}],"outputs":[],"stateMutability":"view"}],"bytecode":{"object":"0xef0001010004020001001103000100b80400000000800002608060405234e100055f6080ee005f80fdef0001010008020002004e005104000000008000040000000560806040526004361015e100035f80fd5f3560e01c63e492814f1415e1ffee34e100286020600319360112e1001a60043560018060a01b0381161415e10006e300015f80f35f80fd5f80fd5f80fd64012a05f20042115f14e10001e4606460405162461bcd60e51b815260206004820152600d60248201527f436f6d70757465722077696e73000000000000000000000000000000000000006044820152fd","linkReferences":{}},"methodIdentifiers":{"play(address)":"e492814f"},"id":0}