{"abi":[{"type":"constructor","inputs":[],"stateMutability":"payable"},{"type":"function","name":"challenge","inputs":[],"outputs":[],"stateMutability":"nonpayable"},{"type":"function","name":"gameMaster","inputs":[],"outputs":[{"name":"","type":"address","internalType":"contract GameMaster"}],"stateMutability":"view"},{"type":"function","name":"gameRegistry","inputs":[],"outputs":[{"name":"","type":"address","internalType":"contract GameRegistry"}],"stateMutability":"view"},{"type":"function","name":"isSolved","inputs":[],"outputs":[{"name":"","type":"bool","internalType":"bool"}],"stateMutability":"view"}],"bytecode":{"object":"0xef00010100040200010080030003016f0116074304000000008000065f6080806040528180ec018015e100666020905f5490610100600160a81b039060081b1690610100600160a81b03191617805f556040519060018060a01b039060081c1681525f80ec028015e1001d60018060a01b031660018060a01b031960015416176001555f6080ee006040513d5f823e3d90fd6040513d5f823e3d90fdef000101000c020003008e0098002a0400000000800005008000080080000460806040526004361015e100035f80fd5f3560e01c806364d98f6e14e1004c8063bdf84ae714e1001a8063d2ef739814e1000d63da0907551415e1ffd0e50002e5000134e100215f600319360112e10014602060018060a01b0360015416604051908152f35f80fd5f80fd34e1001c5f600319360112e1000f60ff5f5416151560805260206080f35f80fd5f80fd34e100915f600319360112e1008460015f5c14e1007960015f5d60015460019081600160038110e100475050600160038110e1000f8215e1000760015f555f80f35f80fd3360405280602052633505b06f5f5260015f6044601c85f814e10006600101e0ffc8915060015f929050e0ffef606460405280602052639122b6005f525f6044601c85f850018290e0ff945f80fd5f80fd5f80fd34e100235f600319360112e10016602060018060a01b035f5460081c16604051908152f35f80fd5f80fdef0001010004020001001103000100ed0400000000800002608060405234e100055f6080ee005f80fdef000101000402000100da04000000008000066080806040526004361015e100035f80fd5f3560e01c9081632a8ec9b814e1006a5063c09c499614e100045fe0ffdf34e100556040600319360112e1004760243560018060a01b03811680911415e10031335f525f60205260405f206004355f5260205260405f20906bffffffffffffffffffffffff60a01b8254161790555f80f35f80fd5f80fd5f80fd34e100486040600319360112e1003a6004359060018060a01b03821680921415e100236020915f525f825260405f206024355f52825260018060a01b0360405f2054168152f35f80fd5f80fd5f80fdef0001010004020001007203000106b90400000000800006608034e10069601f19601f360116810181811060018060401b03821117e1003c604052365f82376020813681010312e100275160018060a01b03811680911415e1001360018060a01b03195f5416175f555f6080ee005f80fd5f80fd634e487b7160e01b5f52604160045260245ffd5f80fdef000101000c02000302d80033001803000200e1028f040000000080000c02000004030100076080806040526004361015e100035f80fd5f905f3560e01c9081633505b06f14e1018e5080637737f50d14e1015880639122b60014e1003063da0907551415e1ffcc34e1002080600319360112e1001460209060018060a01b03905416604051908152f380fd80fd5034e101176040600319360112e1010a80600435600181145f14e1007c60018060a01b03825416602060405160243581528480ec01908115e1005283916040518094819263604e24cb60e11b835260018060a01b03169060048301e300020391f8158015e1001ae10004505080f381908180803ee30001e10005805fe0ffeb80fd82604051903d90823e3d90fd83604051903d90823e3d90fd60028114e100055050e0ffc760018060a01b03825416826040518180ec00908115e1005183916040518094819263604e24cb60e11b835260018060a01b03169060048301e300020391f8158015e10019e10003e0ffb181908180803ee30001e10005805fe0ffec80fd82604051903d90823e3d90fd83604051903d90823e3d90fd80fd80fd5034e100246020600319360112e1001760406020916004358152600183522054604051908152f380fd80fd905034e1011e6040600319360112e101106004356024359060018060a01b03821680921415e100f660448360018060a01b035f5416630551d93760e31b8252306004830152836024830152fb15928315e100c15f93e10077505f52600160205260405f20908154905f198214e1004d5f92600160249301905560405193849163e492814f60e01b8352600483015260018060a01b0316f8158015e10015e100035080f35f80808094503ee300015f80e0ffee6040513d5f823e3d90fd634e487b7160e01b5f52601160045260245ffd9092506020813d602011e1002e816020925f833e8082e3000181010312e100185160018060a01b038116811415e10005915fe0ff545f80fd5f80fd602091503d9150e0ffc86040513d5f823e3d90fd5f80fd5f80fd5f80fd90601f8019910116810190811067ffffffffffffffff821117e10004604052e4634e487b7160e01b5f52604160045260245ffd90916020906040830193835260018060a01b0316910152e4ef0001010004020001001103000100b80400000000800002608060405234e100055f6080ee005f80fdef0001010008020002004e005104000000008000040000000560806040526004361015e100035f80fd5f3560e01c63e492814f1415e1ffee34e100286020600319360112e1001a60043560018060a01b0381161415e10006e300015f80f35f80fd5f80fd5f80fd64012a05f20042115f14e10001e4606460405162461bcd60e51b815260206004820152600d60248201527f436f6d70757465722077696e73000000000000000000000000000000000000006044820152fdef0001010004020001005303000102240400000000800006608034e1004a601f19601f360116810181811060018060401b03821117e1001d604052365f82376020813681010312e10008515f555f6080ee005f80fd634e487b7160e01b5f52604160045260245ffd5f80fdef000101000c020003007b001d016d0400000000800005020100030100000a6080806040526004361015e100035f80fd5f3560e01c908163235dea2814e1003e5063e492814f14e100045fe0ffdf34e100296020600319360112e1001b60043560018060a01b038116811415e10006e300025f80f35f80fd5f80fd5f80fd34e100155f600319360112e100086020905f548152f35f80fd5f80fd908103908111e10001e4634e487b7160e01b5f52601160045260245ffd5f54905f9160648310e10004505050e460405190635c5c69ad60e11b82528060048301525f60248360018060a01b038616f815918215e1012a5f92e100ca5081151580e100b915e10072e300018015e100666003811680155f14e1005750600190e30001918215e1000760010191e0ff94606460405162461bcd60e51b815260206004820152600d60248201527f436f6d70757465722077696e73000000000000000000000000000000000000006044820152fd90e0ffa9505050e4606460405162461bcd60e51b815260206004820152600d60248201527f496e76616c696420696e707574000000000000000000000000000000000000006044820152fd506003821115e0ff3e90915060203d8111e1004b805f833e601f19601f820116820182811067ffffffffffffffff821117e10018602091839160405281010312e1000651905fe0fef65f80fd634e487b7160e01b5f52604160045260245ffd503de0ffb06040513d5f823e3d90fd","linkReferences":{}},"methodIdentifiers":{"challenge()":"d2ef7398","gameMaster()":"bdf84ae7","gameRegistry()":"da090755","isSolved()":"64d98f6e"},"id":0}