{"abi":[{"type":"function","name":"games","inputs":[{"name":"","type":"address","internalType":"address"},{"name":"","type":"uint256","internalType":"uint256"}],"outputs":[{"name":"","type":"address","internalType":"contract IGame"}],"stateMutability":"view"},{"type":"function","name":"registerGame","inputs":[{"name":"gameSlot","type":"uint256","internalType":"uint256"},{"name":"gameAddr","type":"address","internalType":"address"}],"outputs":[],"stateMutability":"nonpayable"}],"bytecode":{"object":"0xef0001010004020001001103000100ed0400000000800002608060405234e100055f6080ee005f80fdef000101000402000100da04000000008000066080806040526004361015e100035f80fd5f3560e01c9081632a8ec9b814e1006a5063c09c499614e100045fe0ffdf34e100556040600319360112e1004760243560018060a01b03811680911415e10031335f525f60205260405f206004355f5260205260405f20906bffffffffffffffffffffffff60a01b8254161790555f80f35f80fd5f80fd5f80fd34e100486040600319360112e1003a6004359060018060a01b03821680921415e100236020915f525f825260405f206024355f52825260018060a01b0360405f2054168152f35f80fd5f80fd5f80fd","linkReferences":{}},"methodIdentifiers":{"games(address,uint256)":"2a8ec9b8","registerGame(uint256,address)":"c09c4996"},"id":0}