{"abi":[{"type":"constructor","inputs":[{"name":"gameRegistry_","type":"address","internalType":"contract GameRegistry"}],"stateMutability":"nonpayable"},{"type":"function","name":"gameRegistry","inputs":[],"outputs":[{"name":"","type":"address","internalType":"contract GameRegistry"}],"stateMutability":"view"},{"type":"function","name":"initializeGame","inputs":[{"name":"gameId","type":"uint256","internalType":"uint256"},{"name":"parameter","type":"uint256","internalType":"uint256"}],"outputs":[],"stateMutability":"nonpayable"},{"type":"function","name":"playCounts","inputs":[{"name":"","type":"uint256","internalType":"uint256"}],"outputs":[{"name":"","type":"uint256","internalType":"uint256"}],"stateMutability":"view"},{"type":"function","name":"playGame","inputs":[{"name":"gameSlot","type":"uint256","internalType":"uint256"},{"name":"challenger","type":"address","internalType":"address"}],"outputs":[],"stateMutability":"nonpayable"}],"bytecode":{"object":"0xef0001010004020001007203000106b90400000000800006608034e10069601f19601f360116810181811060018060401b03821117e1003c604052365f82376020813681010312e100275160018060a01b03811680911415e1001360018060a01b03195f5416175f555f6080ee005f80fd5f80fd634e487b7160e01b5f52604160045260245ffd5f80fdef000101000c02000302d80033001803000200e1028f040000000080000c02000004030100076080806040526004361015e100035f80fd5f905f3560e01c9081633505b06f14e1018e5080637737f50d14e1015880639122b60014e1003063da0907551415e1ffcc34e1002080600319360112e1001460209060018060a01b03905416604051908152f380fd80fd5034e101176040600319360112e1010a80600435600181145f14e1007c60018060a01b03825416602060405160243581528480ec01908115e1005283916040518094819263604e24cb60e11b835260018060a01b03169060048301e300020391f8158015e1001ae10004505080f381908180803ee30001e10005805fe0ffeb80fd82604051903d90823e3d90fd83604051903d90823e3d90fd60028114e100055050e0ffc760018060a01b03825416826040518180ec00908115e1005183916040518094819263604e24cb60e11b835260018060a01b03169060048301e300020391f8158015e10019e10003e0ffb181908180803ee30001e10005805fe0ffec80fd82604051903d90823e3d90fd83604051903d90823e3d90fd80fd80fd5034e100246020600319360112e1001760406020916004358152600183522054604051908152f380fd80fd905034e1011e6040600319360112e101106004356024359060018060a01b03821680921415e100f660448360018060a01b035f5416630551d93760e31b8252306004830152836024830152fb15928315e100c15f93e10077505f52600160205260405f20908154905f198214e1004d5f92600160249301905560405193849163e492814f60e01b8352600483015260018060a01b0316f8158015e10015e100035080f35f80808094503ee300015f80e0ffee6040513d5f823e3d90fd634e487b7160e01b5f52601160045260245ffd9092506020813d602011e1002e816020925f833e8082e3000181010312e100185160018060a01b038116811415e10005915fe0ff545f80fd5f80fd602091503d9150e0ffc86040513d5f823e3d90fd5f80fd5f80fd5f80fd90601f8019910116810190811067ffffffffffffffff821117e10004604052e4634e487b7160e01b5f52604160045260245ffd90916020906040830193835260018060a01b0316910152e4ef0001010004020001001103000100b80400000000800002608060405234e100055f6080ee005f80fdef0001010008020002004e005104000000008000040000000560806040526004361015e100035f80fd5f3560e01c63e492814f1415e1ffee34e100286020600319360112e1001a60043560018060a01b0381161415e10006e300015f80f35f80fd5f80fd5f80fd64012a05f20042115f14e10001e4606460405162461bcd60e51b815260206004820152600d60248201527f436f6d70757465722077696e73000000000000000000000000000000000000006044820152fdef0001010004020001005303000102240400000000800006608034e1004a601f19601f360116810181811060018060401b03821117e1001d604052365f82376020813681010312e10008515f555f6080ee005f80fd634e487b7160e01b5f52604160045260245ffd5f80fdef000101000c020003007b001d016d0400000000800005020100030100000a6080806040526004361015e100035f80fd5f3560e01c908163235dea2814e1003e5063e492814f14e100045fe0ffdf34e100296020600319360112e1001b60043560018060a01b038116811415e10006e300025f80f35f80fd5f80fd5f80fd34e100155f600319360112e100086020905f548152f35f80fd5f80fd908103908111e10001e4634e487b7160e01b5f52601160045260245ffd5f54905f9160648310e10004505050e460405190635c5c69ad60e11b82528060048301525f60248360018060a01b038616f815918215e1012a5f92e100ca5081151580e100b915e10072e300018015e100666003811680155f14e1005750600190e30001918215e1000760010191e0ff94606460405162461bcd60e51b815260206004820152600d60248201527f436f6d70757465722077696e73000000000000000000000000000000000000006044820152fd90e0ffa9505050e4606460405162461bcd60e51b815260206004820152600d60248201527f496e76616c696420696e707574000000000000000000000000000000000000006044820152fd506003821115e0ff3e90915060203d8111e1004b805f833e601f19601f820116820182811067ffffffffffffffff821117e10018602091839160405281010312e1000651905fe0fef65f80fd634e487b7160e01b5f52604160045260245ffd503de0ffb06040513d5f823e3d90fd","linkReferences":{}},"methodIdentifiers":{"gameRegistry()":"da090755","initializeGame(uint256,uint256)":"9122b600","playCounts(uint256)":"7737f50d","playGame(uint256,address)":"3505b06f"},"id":0}