{"abi":[{"type":"constructor","inputs":[{"name":"initialSticks_","type":"uint256","internalType":"uint256"}],"stateMutability":"nonpayable"},{"type":"function","name":"initialSticks","inputs":[],"outputs":[{"name":"","type":"uint256","internalType":"uint256"}],"stateMutability":"view"},{"type":"function","name":"play","inputs":[{"name":"solverAddr","type":"address","internalType":"address"}],"outputs":[],"stateMutability":"nonpayable"}],"bytecode":{"object":"0xef0001010004020001005303000102240400000000800006608034e1004a601f19601f360116810181811060018060401b03821117e1001d604052365f82376020813681010312e10008515f555f6080ee005f80fd634e487b7160e01b5f52604160045260245ffd5f80fdef000101000c020003007b001d016d0400000000800005020100030100000a6080806040526004361015e100035f80fd5f3560e01c908163235dea2814e1003e5063e492814f14e100045fe0ffdf34e100296020600319360112e1001b60043560018060a01b038116811415e10006e300025f80f35f80fd5f80fd5f80fd34e100155f600319360112e100086020905f548152f35f80fd5f80fd908103908111e10001e4634e487b7160e01b5f52601160045260245ffd5f54905f9160648310e10004505050e460405190635c5c69ad60e11b82528060048301525f60248360018060a01b038616f815918215e1012a5f92e100ca5081151580e100b915e10072e300018015e100666003811680155f14e1005750600190e30001918215e1000760010191e0ff94606460405162461bcd60e51b815260206004820152600d60248201527f436f6d70757465722077696e73000000000000000000000000000000000000006044820152fd90e0ffa9505050e4606460405162461bcd60e51b815260206004820152600d60248201527f496e76616c696420696e707574000000000000000000000000000000000000006044820152fd506003821115e0ff3e90915060203d8111e1004b805f833e601f19601f820116820182811067ffffffffffffffff821117e10018602091839160405281010312e1000651905fe0fef65f80fd634e487b7160e01b5f52604160045260245ffd503de0ffb06040513d5f823e3d90fd","linkReferences":{}},"methodIdentifiers":{"initialSticks()":"235dea28","play(address)":"e492814f"},"id":0}